{
  "contractName": "MilkSupplyChain",
  "abi": [
    {
      "anonymous": false,
      "inputs": [
        {
          "indexed": false,
          "internalType": "string",
          "name": "serialNumber",
          "type": "string"
        },
        {
          "indexed": false,
          "internalType": "enum MilkSupplyChain.MilkBoxStatus",
          "name": "status",
          "type": "uint8"
        }
      ],
      "name": "BoxStatusUpdated",
      "type": "event"
    },
    {
      "anonymous": false,
      "inputs": [
        {
          "indexed": false,
          "internalType": "string",
          "name": "serialNumber",
          "type": "string"
        },
        {
          "indexed": false,
          "internalType": "string",
          "name": "distributor",
          "type": "string"
        }
      ],
      "name": "DistributorUpdated",
      "type": "event"
    },
    {
      "anonymous": false,
      "inputs": [
        {
          "indexed": false,
          "internalType": "uint256",
          "name": "batchId",
          "type": "uint256"
        }
      ],
      "name": "MilkBatchApproved",
      "type": "event"
    },
    {
      "anonymous": false,
      "inputs": [
        {
          "indexed": false,
          "internalType": "uint256",
          "name": "batchId",
          "type": "uint256"
        },
        {
          "indexed": false,
          "internalType": "string",
          "name": "batchName",
          "type": "string"
        },
        {
          "indexed": false,
          "internalType": "string",
          "name": "milkingDate",
          "type": "string"
        },
        {
          "indexed": false,
          "internalType": "uint256",
          "name": "volume",
          "type": "uint256"
        }
      ],
      "name": "MilkBatchCreated",
      "type": "event"
    },
    {
      "anonymous": false,
      "inputs": [
        {
          "indexed": false,
          "internalType": "string",
          "name": "serialNumber",
          "type": "string"
        },
        {
          "indexed": false,
          "internalType": "uint256",
          "name": "batchId",
          "type": "uint256"
        }
      ],
      "name": "MilkBoxCreated",
      "type": "event"
    },
    {
      "anonymous": false,
      "inputs": [
        {
          "indexed": false,
          "internalType": "string",
          "name": "serialNumber",
          "type": "string"
        }
      ],
      "name": "ProcessingBoxApproved",
      "type": "event"
    },
    {
      "anonymous": false,
      "inputs": [
        {
          "indexed": false,
          "internalType": "string",
          "name": "serialNumber",
          "type": "string"
        }
      ],
      "name": "TransportBoxApproved",
      "type": "event"
    },
    {
      "inputs": [
        {
          "internalType": "uint256",
          "name": "",
          "type": "uint256"
        }
      ],
      "name": "milkBatches",
      "outputs": [
        {
          "internalType": "uint256",
          "name": "batchId",
          "type": "uint256"
        },
        {
          "internalType": "string",
          "name": "batchName",
          "type": "string"
        },
        {
          "internalType": "string",
          "name": "milkingDate",
          "type": "string"
        },
        {
          "internalType": "uint256",
          "name": "volume",
          "type": "uint256"
        },
        {
          "internalType": "string",
          "name": "farmOwner",
          "type": "string"
        },
        {
          "internalType": "string",
          "name": "approvedBy",
          "type": "string"
        },
        {
          "internalType": "enum MilkSupplyChain.BatchStatus",
          "name": "status",
          "type": "uint8"
        }
      ],
      "stateMutability": "view",
      "type": "function",
      "constant": true
    },
    {
      "inputs": [
        {
          "internalType": "string",
          "name": "",
          "type": "string"
        }
      ],
      "name": "milkBoxes",
      "outputs": [
        {
          "internalType": "string",
          "name": "serialNumber",
          "type": "string"
        },
        {
          "internalType": "uint256",
          "name": "batchId",
          "type": "uint256"
        },
        {
          "internalType": "bool",
          "name": "processingApproved",
          "type": "bool"
        },
        {
          "internalType": "bool",
          "name": "transportApproved",
          "type": "bool"
        },
        {
          "internalType": "string",
          "name": "distributorAddress",
          "type": "string"
        },
        {
          "internalType": "enum MilkSupplyChain.MilkBoxStatus",
          "name": "status",
          "type": "uint8"
        },
        {
          "internalType": "string",
          "name": "owner",
          "type": "string"
        },
        {
          "internalType": "string",
          "name": "manufacturer",
          "type": "string"
        },
        {
          "internalType": "string",
          "name": "boxName",
          "type": "string"
        },
        {
          "internalType": "string",
          "name": "manufacturingDate",
          "type": "string"
        },
        {
          "internalType": "string",
          "name": "expirationDate",
          "type": "string"
        }
      ],
      "stateMutability": "view",
      "type": "function",
      "constant": true
    },
    {
      "inputs": [],
      "name": "nextBatchId",
      "outputs": [
        {
          "internalType": "uint256",
          "name": "",
          "type": "uint256"
        }
      ],
      "stateMutability": "view",
      "type": "function",
      "constant": true
    },
    {
      "inputs": [
        {
          "internalType": "uint256",
          "name": "",
          "type": "uint256"
        }
      ],
      "name": "participantAddresses",
      "outputs": [
        {
          "internalType": "address",
          "name": "",
          "type": "address"
        }
      ],
      "stateMutability": "view",
      "type": "function",
      "constant": true
    },
    {
      "inputs": [
        {
          "internalType": "address",
          "name": "",
          "type": "address"
        }
      ],
      "name": "participantRegistered",
      "outputs": [
        {
          "internalType": "bool",
          "name": "",
          "type": "bool"
        }
      ],
      "stateMutability": "view",
      "type": "function",
      "constant": true
    },
    {
      "inputs": [
        {
          "internalType": "address",
          "name": "",
          "type": "address"
        }
      ],
      "name": "participants",
      "outputs": [
        {
          "internalType": "string",
          "name": "name",
          "type": "string"
        },
        {
          "internalType": "string",
          "name": "location",
          "type": "string"
        },
        {
          "internalType": "string",
          "name": "phone",
          "type": "string"
        },
        {
          "internalType": "string",
          "name": "role",
          "type": "string"
        },
        {
          "internalType": "bool",
          "name": "isActive",
          "type": "bool"
        }
      ],
      "stateMutability": "view",
      "type": "function",
      "constant": true
    },
    {
      "inputs": [
        {
          "internalType": "address",
          "name": "_participant",
          "type": "address"
        },
        {
          "internalType": "string",
          "name": "_name",
          "type": "string"
        },
        {
          "internalType": "string",
          "name": "_location",
          "type": "string"
        },
        {
          "internalType": "string",
          "name": "_phone",
          "type": "string"
        },
        {
          "internalType": "string",
          "name": "_role",
          "type": "string"
        },
        {
          "internalType": "bool",
          "name": "_isActive",
          "type": "bool"
        }
      ],
      "name": "setParticipant",
      "outputs": [],
      "stateMutability": "nonpayable",
      "type": "function"
    },
    {
      "inputs": [],
      "name": "getParticipants",
      "outputs": [
        {
          "components": [
            {
              "internalType": "string",
              "name": "name",
              "type": "string"
            },
            {
              "internalType": "string",
              "name": "location",
              "type": "string"
            },
            {
              "internalType": "string",
              "name": "phone",
              "type": "string"
            },
            {
              "internalType": "string",
              "name": "role",
              "type": "string"
            },
            {
              "internalType": "bool",
              "name": "isActive",
              "type": "bool"
            }
          ],
          "internalType": "struct MilkSupplyChain.Participant[]",
          "name": "",
          "type": "tuple[]"
        }
      ],
      "stateMutability": "view",
      "type": "function",
      "constant": true
    },
    {
      "inputs": [
        {
          "internalType": "string",
          "name": "_batchName",
          "type": "string"
        },
        {
          "internalType": "string",
          "name": "_milkingDate",
          "type": "string"
        },
        {
          "internalType": "uint256",
          "name": "_volume",
          "type": "uint256"
        },
        {
          "internalType": "string",
          "name": "_farmOwner",
          "type": "string"
        },
        {
          "internalType": "string",
          "name": "_approvedBy",
          "type": "string"
        }
      ],
      "name": "createMilkBatch",
      "outputs": [],
      "stateMutability": "nonpayable",
      "type": "function"
    },
    {
      "inputs": [
        {
          "internalType": "uint256",
          "name": "_batchId",
          "type": "uint256"
        },
        {
          "internalType": "string",
          "name": "_batchName",
          "type": "string"
        },
        {
          "internalType": "string",
          "name": "_milkingDate",
          "type": "string"
        },
        {
          "internalType": "uint256",
          "name": "_volume",
          "type": "uint256"
        },
        {
          "internalType": "string",
          "name": "_farmOwner",
          "type": "string"
        },
        {
          "internalType": "string",
          "name": "_approvedBy",
          "type": "string"
        }
      ],
      "name": "updateMilkBatch",
      "outputs": [],
      "stateMutability": "nonpayable",
      "type": "function"
    },
    {
      "inputs": [
        {
          "internalType": "uint256",
          "name": "_batchId",
          "type": "uint256"
        },
        {
          "internalType": "string",
          "name": "_approvedBy",
          "type": "string"
        }
      ],
      "name": "approveMilking",
      "outputs": [],
      "stateMutability": "nonpayable",
      "type": "function"
    },
    {
      "inputs": [
        {
          "internalType": "uint256",
          "name": "_batchId",
          "type": "uint256"
        },
        {
          "internalType": "string",
          "name": "_serialNumber",
          "type": "string"
        },
        {
          "internalType": "string",
          "name": "_boxName",
          "type": "string"
        },
        {
          "internalType": "string",
          "name": "_manufacturingDate",
          "type": "string"
        },
        {
          "internalType": "string",
          "name": "_expirationDate",
          "type": "string"
        },
        {
          "internalType": "string",
          "name": "_manufacturer",
          "type": "string"
        },
        {
          "internalType": "string",
          "name": "_distributorAddress",
          "type": "string"
        }
      ],
      "name": "createMilkBox",
      "outputs": [],
      "stateMutability": "nonpayable",
      "type": "function"
    },
    {
      "inputs": [
        {
          "internalType": "string",
          "name": "_serialNumber",
          "type": "string"
        },
        {
          "internalType": "string",
          "name": "_boxName",
          "type": "string"
        },
        {
          "internalType": "string",
          "name": "_manufacturingDate",
          "type": "string"
        },
        {
          "internalType": "string",
          "name": "_expirationDate",
          "type": "string"
        },
        {
          "internalType": "string",
          "name": "_manufacturer",
          "type": "string"
        },
        {
          "internalType": "string",
          "name": "_distributorAddress",
          "type": "string"
        }
      ],
      "name": "updateMilkBox",
      "outputs": [],
      "stateMutability": "nonpayable",
      "type": "function"
    },
    {
      "inputs": [
        {
          "internalType": "string",
          "name": "_serialNumber",
          "type": "string"
        }
      ],
      "name": "approveProcessingBox",
      "outputs": [],
      "stateMutability": "nonpayable",
      "type": "function"
    },
    {
      "inputs": [
        {
          "internalType": "string",
          "name": "_serialNumber",
          "type": "string"
        },
        {
          "internalType": "string",
          "name": "_distributorAddress",
          "type": "string"
        },
        {
          "internalType": "string",
          "name": "_owner",
          "type": "string"
        }
      ],
      "name": "updateDistributor",
      "outputs": [],
      "stateMutability": "nonpayable",
      "type": "function"
    },
    {
      "inputs": [
        {
          "internalType": "string",
          "name": "_serialNumber",
          "type": "string"
        }
      ],
      "name": "approveTransportBox",
      "outputs": [],
      "stateMutability": "nonpayable",
      "type": "function"
    },
    {
      "inputs": [
        {
          "internalType": "string",
          "name": "_serialNumber",
          "type": "string"
        },
        {
          "internalType": "enum MilkSupplyChain.MilkBoxStatus",
          "name": "_newStatus",
          "type": "uint8"
        }
      ],
      "name": "updateBoxStatusAtRetail",
      "outputs": [],
      "stateMutability": "nonpayable",
      "type": "function"
    },
    {
      "inputs": [
        {
          "internalType": "string",
          "name": "_serialNumber",
          "type": "string"
        }
      ],
      "name": "getMilkBoxDetails",
      "outputs": [
        {
          "components": [
            {
              "internalType": "string",
              "name": "serialNumber",
              "type": "string"
            },
            {
              "internalType": "uint256",
              "name": "batchId",
              "type": "uint256"
            },
            {
              "internalType": "bool",
              "name": "processingApproved",
              "type": "bool"
            },
            {
              "internalType": "bool",
              "name": "transportApproved",
              "type": "bool"
            },
            {
              "internalType": "string",
              "name": "distributorAddress",
              "type": "string"
            },
            {
              "internalType": "uint8",
              "name": "boxStatus",
              "type": "uint8"
            },
            {
              "internalType": "string",
              "name": "owner",
              "type": "string"
            },
            {
              "internalType": "string",
              "name": "manufacturer",
              "type": "string"
            },
            {
              "internalType": "string",
              "name": "boxName",
              "type": "string"
            },
            {
              "internalType": "string",
              "name": "manufacturingDate",
              "type": "string"
            },
            {
              "internalType": "string",
              "name": "expirationDate",
              "type": "string"
            },
            {
              "internalType": "string",
              "name": "batchName",
              "type": "string"
            },
            {
              "internalType": "string",
              "name": "milkingDate",
              "type": "string"
            },
            {
              "internalType": "uint256",
              "name": "volume",
              "type": "uint256"
            },
            {
              "internalType": "string",
              "name": "farmOwner",
              "type": "string"
            },
            {
              "internalType": "string",
              "name": "approvedBy",
              "type": "string"
            },
            {
              "internalType": "uint8",
              "name": "batchStatus",
              "type": "uint8"
            }
          ],
          "internalType": "struct MilkSupplyChain.MilkBoxDetail",
          "name": "",
          "type": "tuple"
        }
      ],
      "stateMutability": "view",
      "type": "function",
      "constant": true
    }
  ],
  "bytecode": "0x6080604052600160045534801561001557600080fd5b50614f72806100256000396000f3fe608060405234801561001057600080fd5b50600436106101165760003560e01c80635aa68ac0116100a2578063aa85317011610071578063aa853170146102e5578063d301246414610315578063e849fb6b14610331578063e94aabb61461036b578063f5c1b0a61461038757610116565b80635aa68ac014610271578063600c3e441461028f5780636133f02f146102ab5780638462a7f8146102c757610116565b80633827cca1116100e95780633827cca1146101b75780634c143675146101d35780634e266aea146101ef5780634f39f2831461022557806354ffbddb1461024157610116565b806309e69ede1461011b5780631c79d9f01461014f5780631d7333371461016b5780632b14760b1461019b575b600080fd5b61013560048036038101906101309190613836565b6103a3565b60405161014695949392919061478e565b60405180910390f35b61016960048036038101906101649190613c8d565b610606565b005b61018560048036038101906101809190613836565b610880565b60405161019291906146ea565b60405180910390f35b6101b560048036038101906101b09190613b8d565b6108a0565b005b6101d160048036038101906101cc9190613989565b610a64565b005b6101ed60048036038101906101e89190613948565b610ce2565b005b61020960048036038101906102049190613c64565b610f28565b60405161021c9796959493929190614b19565b60405180910390f35b61023f600480360381019061023a9190613a74565b611197565b005b61025b60048036038101906102569190613c64565b611410565b60405161026891906146ad565b60405180910390f35b61027961144f565b60405161028691906146c8565b60405180910390f35b6102a960048036038101906102a49190613948565b611854565b005b6102c560048036038101906102c09190613e0f565b611b0a565b005b6102cf611e4f565b6040516102dc9190614aab565b60405180910390f35b6102ff60048036038101906102fa9190613948565b611e55565b60405161030c9190614a89565b60405180910390f35b61032f600480360381019061032a91906139dd565b6127e2565b005b61034b60048036038101906103469190613948565b612ace565b6040516103629b9a9998979695949392919061482d565b60405180910390f35b6103856004803603810190610380919061385f565b612f1d565b005b6103a1600480360381019061039c9190613ce1565b613130565b005b60006020528060005260406000206000915090508060000180546103c690614d77565b80601f01602080910402602001604051908101604052809291908181526020018280546103f290614d77565b801561043f5780601f106104145761010080835404028352916020019161043f565b820191906000526020600020905b81548152906001019060200180831161042257829003601f168201915b50505050509080600101805461045490614d77565b80601f016020809104026020016040519081016040528092919081815260200182805461048090614d77565b80156104cd5780601f106104a2576101008083540402835291602001916104cd565b820191906000526020600020905b8154815290600101906020018083116104b057829003601f168201915b5050505050908060020180546104e290614d77565b80601f016020809104026020016040519081016040528092919081815260200182805461050e90614d77565b801561055b5780601f106105305761010080835404028352916020019161055b565b820191906000526020600020905b81548152906001019060200180831161053e57829003601f168201915b50505050509080600301805461057090614d77565b80601f016020809104026020016040519081016040528092919081815260200182805461059c90614d77565b80156105e95780601f106105be576101008083540402835291602001916105e9565b820191906000526020600020905b8154815290600101906020018083116105cc57829003601f168201915b5050505050908060040160009054906101000a900460ff16905085565b6000803373ffffffffffffffffffffffffffffffffffffffff1673ffffffffffffffffffffffffffffffffffffffff16815260200190815260200160002060040160009054906101000a900460ff16610694576040517f08c379a000000000000000000000000000000000000000000000000000000000815260040161068b906149c9565b60405180910390fd5b6040518060400160405280601381526020017f4e5554524954494f4e5f415554484f5249545900000000000000000000000000815250805190602001206000803373ffffffffffffffffffffffffffffffffffffffff1673ffffffffffffffffffffffffffffffffffffffff16815260200190815260200160002060030160405161071f919061467f565b604051809103902014610767576040517f08c379a000000000000000000000000000000000000000000000000000000000815260040161075e90614989565b60405180910390fd5b6000600360008481526020019081526020016000206000015414156107c1576040517f08c379a00000000000000000000000000000000000000000000000000000000081526004016107b890614909565b60405180910390fd5b6000600360008481526020019081526020016000209050818160050190805190602001906107f092919061358b565b5060018160060160006101000a81548160ff0219169083600381111561083f577f4e487b7100000000000000000000000000000000000000000000000000000000600052602160045260246000fd5b02179055507f62140afecdc609db4f53ad5f798f2ddb7c58cc3f54dc8ca5d6b35b0d0632f84d836040516108739190614aab565b60405180910390a1505050565b60026020528060005260406000206000915054906101000a900460ff1681565b60006004549050600460008154809291906108ba90614da9565b91905055506040518060e0016040528082815260200187815260200186815260200185815260200184815260200183815260200160006003811115610928577f4e487b7100000000000000000000000000000000000000000000000000000000600052602160045260246000fd5b8152506003600083815260200190815260200160002060008201518160000155602082015181600101908051906020019061096492919061358b565b50604082015181600201908051906020019061098192919061358b565b506060820151816003015560808201518160040190805190602001906109a892919061358b565b5060a08201518160050190805190602001906109c592919061358b565b5060c08201518160060160006101000a81548160ff02191690836003811115610a17577f4e487b7100000000000000000000000000000000000000000000000000000000600052602160045260246000fd5b02179055509050507fef4b055cf5e993c6d83cf74a12e25bf0adc276bc3a6e39eb6c2ba0960535445d81878787604051610a549493929190614ac6565b60405180910390a1505050505050565b6000803373ffffffffffffffffffffffffffffffffffffffff1673ffffffffffffffffffffffffffffffffffffffff16815260200190815260200160002060040160009054906101000a900460ff16610af2576040517f08c379a0000000000000000000000000000000000000000000000000000000008152600401610ae9906149c9565b60405180910390fd5b6040518060400160405280600881526020017f52455441494c4552000000000000000000000000000000000000000000000000815250805190602001206000803373ffffffffffffffffffffffffffffffffffffffff1673ffffffffffffffffffffffffffffffffffffffff168152602001908152602001600020600301604051610b7d919061467f565b604051809103902014610bc5576040517f08c379a0000000000000000000000000000000000000000000000000000000008152600401610bbc90614949565b60405180910390fd5b6000600583604051610bd79190614696565b90815260200160405180910390206000018054610bf390614d77565b90501415610c36576040517f08c379a0000000000000000000000000000000000000000000000000000000008152600401610c2d90614a69565b60405180910390fd5b80600583604051610c479190614696565b908152602001604051809103902060040160006101000a81548160ff02191690836004811115610ca0577f4e487b7100000000000000000000000000000000000000000000000000000000600052602160045260246000fd5b02179055507f4c0a4d3facab28166bd1c55596a07bb0a00b61821553223addb723b931d11b8d8282604051610cd6929190614727565b60405180910390a15050565b6000803373ffffffffffffffffffffffffffffffffffffffff1673ffffffffffffffffffffffffffffffffffffffff16815260200190815260200160002060040160009054906101000a900460ff16610d70576040517f08c379a0000000000000000000000000000000000000000000000000000000008152600401610d67906149c9565b60405180910390fd5b6040518060400160405280601381526020017f5452414e53504f52545f415554484f5249545900000000000000000000000000815250805190602001206000803373ffffffffffffffffffffffffffffffffffffffff1673ffffffffffffffffffffffffffffffffffffffff168152602001908152602001600020600301604051610dfb919061467f565b604051809103902014610e43576040517f08c379a0000000000000000000000000000000000000000000000000000000008152600401610e3a90614929565b60405180910390fd5b6000600582604051610e559190614696565b90815260200160405180910390206000018054610e7190614d77565b90501415610eb4576040517f08c379a0000000000000000000000000000000000000000000000000000000008152600401610eab90614a69565b60405180910390fd5b6001600582604051610ec69190614696565b908152602001604051809103902060020160016101000a81548160ff0219169083151502179055507f53328116520672148febbdab09d3767790087c1367615613d31da4b9c864eb8281604051610f1d9190614705565b60405180910390a150565b6003602052806000526040600020600091509050806000015490806001018054610f5190614d77565b80601f0160208091040260200160405190810160405280929190818152602001828054610f7d90614d77565b8015610fca5780601f10610f9f57610100808354040283529160200191610fca565b820191906000526020600020905b815481529060010190602001808311610fad57829003601f168201915b505050505090806002018054610fdf90614d77565b80601f016020809104026020016040519081016040528092919081815260200182805461100b90614d77565b80156110585780601f1061102d57610100808354040283529160200191611058565b820191906000526020600020905b81548152906001019060200180831161103b57829003601f168201915b50505050509080600301549080600401805461107390614d77565b80601f016020809104026020016040519081016040528092919081815260200182805461109f90614d77565b80156110ec5780601f106110c1576101008083540402835291602001916110ec565b820191906000526020600020905b8154815290600101906020018083116110cf57829003601f168201915b50505050509080600501805461110190614d77565b80601f016020809104026020016040519081016040528092919081815260200182805461112d90614d77565b801561117a5780601f1061114f5761010080835404028352916020019161117a565b820191906000526020600020905b81548152906001019060200180831161115d57829003601f168201915b5050505050908060060160009054906101000a900460ff16905087565b6000803373ffffffffffffffffffffffffffffffffffffffff1673ffffffffffffffffffffffffffffffffffffffff16815260200190815260200160002060040160009054906101000a900460ff16611225576040517f08c379a000000000000000000000000000000000000000000000000000000000815260040161121c906149c9565b60405180910390fd5b6040518060400160405280600c81526020017f4d414e5546414354555245520000000000000000000000000000000000000000815250805190602001206000803373ffffffffffffffffffffffffffffffffffffffff1673ffffffffffffffffffffffffffffffffffffffff1681526020019081526020016000206003016040516112b0919061467f565b6040518091039020146112f8576040517f08c379a00000000000000000000000000000000000000000000000000000000081526004016112ef906149e9565b60405180910390fd5b600060058760405161130a9190614696565b9081526020016040518091039020600001805461132690614d77565b905011611368576040517f08c379a000000000000000000000000000000000000000000000000000000000815260040161135f90614a69565b60405180910390fd5b600060058760405161137a9190614696565b90815260200160405180910390209050858160070190805190602001906113a292919061358b565b50848160080190805190602001906113bb92919061358b565b50838160090190805190602001906113d492919061358b565b50828160060190805190602001906113ed92919061358b565b508181600301908051906020019061140692919061358b565b5050505050505050565b6001818154811061142057600080fd5b906000526020600020016000915054906101000a900473ffffffffffffffffffffffffffffffffffffffff1681565b60606000600180549050905060008167ffffffffffffffff81111561149d577f4e487b7100000000000000000000000000000000000000000000000000000000600052604160045260246000fd5b6040519080825280602002602001820160405280156114d657816020015b6114c3613611565b8152602001906001900390816114bb5790505b50905060005b8281101561184b5760008060018381548110611521577f4e487b7100000000000000000000000000000000000000000000000000000000600052603260045260246000fd5b9060005260206000200160009054906101000a900473ffffffffffffffffffffffffffffffffffffffff1673ffffffffffffffffffffffffffffffffffffffff1673ffffffffffffffffffffffffffffffffffffffff1681526020019081526020016000206040518060a00160405290816000820180546115a190614d77565b80601f01602080910402602001604051908101604052809291908181526020018280546115cd90614d77565b801561161a5780601f106115ef5761010080835404028352916020019161161a565b820191906000526020600020905b8154815290600101906020018083116115fd57829003601f168201915b5050505050815260200160018201805461163390614d77565b80601f016020809104026020016040519081016040528092919081815260200182805461165f90614d77565b80156116ac5780601f10611681576101008083540402835291602001916116ac565b820191906000526020600020905b81548152906001019060200180831161168f57829003601f168201915b505050505081526020016002820180546116c590614d77565b80601f01602080910402602001604051908101604052809291908181526020018280546116f190614d77565b801561173e5780601f106117135761010080835404028352916020019161173e565b820191906000526020600020905b81548152906001019060200180831161172157829003601f168201915b5050505050815260200160038201805461175790614d77565b80601f016020809104026020016040519081016040528092919081815260200182805461178390614d77565b80156117d05780601f106117a5576101008083540402835291602001916117d0565b820191906000526020600020905b8154815290600101906020018083116117b357829003601f168201915b505050505081526020016004820160009054906101000a900460ff16151515158152505082828151811061182d577f4e487b7100000000000000000000000000000000000000000000000000000000600052603260045260246000fd5b6020026020010181905250808061184390614da9565b9150506114dc565b50809250505090565b6000803373ffffffffffffffffffffffffffffffffffffffff1673ffffffffffffffffffffffffffffffffffffffff16815260200190815260200160002060040160009054906101000a900460ff166118e2576040517f08c379a00000000000000000000000000000000000000000000000000000000081526004016118d9906149c9565b60405180910390fd5b6040518060400160405280601581526020017f464f4f445f5341464554595f415554484f524954590000000000000000000000815250805190602001206000803373ffffffffffffffffffffffffffffffffffffffff1673ffffffffffffffffffffffffffffffffffffffff16815260200190815260200160002060030160405161196d919061467f565b6040518091039020146119b5576040517f08c379a00000000000000000000000000000000000000000000000000000000081526004016119ac90614a09565b60405180910390fd5b60006005826040516119c79190614696565b908152602001604051809103902060000180546119e390614d77565b90501415611a26576040517f08c379a0000000000000000000000000000000000000000000000000000000008152600401611a1d90614a69565b60405180910390fd5b6001600582604051611a389190614696565b908152602001604051809103902060020160006101000a81548160ff0219169083151502179055506001600582604051611a729190614696565b908152602001604051809103902060040160006101000a81548160ff02191690836004811115611acb577f4e487b7100000000000000000000000000000000000000000000000000000000600052602160045260246000fd5b02179055507f17de5669c9ffba8689a30adcbb78e5758413b6fef1781d60316ace11ef500ab581604051611aff9190614705565b60405180910390a150565b6000803373ffffffffffffffffffffffffffffffffffffffff1673ffffffffffffffffffffffffffffffffffffffff16815260200190815260200160002060040160009054906101000a900460ff16611b98576040517f08c379a0000000000000000000000000000000000000000000000000000000008152600401611b8f906149c9565b60405180910390fd5b6040518060400160405280600481526020017f4641524d00000000000000000000000000000000000000000000000000000000815250805190602001206000803373ffffffffffffffffffffffffffffffffffffffff1673ffffffffffffffffffffffffffffffffffffffff168152602001908152602001600020600301604051611c23919061467f565b604051809103902014611c6b576040517f08c379a0000000000000000000000000000000000000000000000000000000008152600401611c6290614a29565b60405180910390fd5b600060036000888152602001908152602001600020600001541415611cc5576040517f08c379a0000000000000000000000000000000000000000000000000000000008152600401611cbc90614909565b60405180910390fd5b6040518060e001604052808781526020018681526020018581526020018481526020018381526020018281526020016003600089815260200190815260200160002060060160009054906101000a900460ff166003811115611d50577f4e487b7100000000000000000000000000000000000000000000000000000000600052602160045260246000fd5b81525060036000888152602001908152602001600020600082015181600001556020820151816001019080519060200190611d8c92919061358b565b506040820151816002019080519060200190611da992919061358b565b50606082015181600301556080820151816004019080519060200190611dd092919061358b565b5060a0820151816005019080519060200190611ded92919061358b565b5060c08201518160060160006101000a81548160ff02191690836003811115611e3f577f4e487b7100000000000000000000000000000000000000000000000000000000600052602160045260246000fd5b0217905550905050505050505050565b60045481565b611e5d613642565b6000600583604051611e6f9190614696565b908152602001604051809103902060405180610160016040529081600082018054611e9990614d77565b80601f0160208091040260200160405190810160405280929190818152602001828054611ec590614d77565b8015611f125780601f10611ee757610100808354040283529160200191611f12565b820191906000526020600020905b815481529060010190602001808311611ef557829003601f168201915b50505050508152602001600182015481526020016002820160009054906101000a900460ff161515151581526020016002820160019054906101000a900460ff16151515158152602001600382018054611f6b90614d77565b80601f0160208091040260200160405190810160405280929190818152602001828054611f9790614d77565b8015611fe45780601f10611fb957610100808354040283529160200191611fe4565b820191906000526020600020905b815481529060010190602001808311611fc757829003601f168201915b505050505081526020016004820160009054906101000a900460ff166004811115612038577f4e487b7100000000000000000000000000000000000000000000000000000000600052602160045260246000fd5b6004811115612070577f4e487b7100000000000000000000000000000000000000000000000000000000600052602160045260246000fd5b815260200160058201805461208490614d77565b80601f01602080910402602001604051908101604052809291908181526020018280546120b090614d77565b80156120fd5780601f106120d2576101008083540402835291602001916120fd565b820191906000526020600020905b8154815290600101906020018083116120e057829003601f168201915b5050505050815260200160068201805461211690614d77565b80601f016020809104026020016040519081016040528092919081815260200182805461214290614d77565b801561218f5780601f106121645761010080835404028352916020019161218f565b820191906000526020600020905b81548152906001019060200180831161217257829003601f168201915b505050505081526020016007820180546121a890614d77565b80601f01602080910402602001604051908101604052809291908181526020018280546121d490614d77565b80156122215780601f106121f657610100808354040283529160200191612221565b820191906000526020600020905b81548152906001019060200180831161220457829003601f168201915b5050505050815260200160088201805461223a90614d77565b80601f016020809104026020016040519081016040528092919081815260200182805461226690614d77565b80156122b35780601f10612288576101008083540402835291602001916122b3565b820191906000526020600020905b81548152906001019060200180831161229657829003601f168201915b505050505081526020016009820180546122cc90614d77565b80601f01602080910402602001604051908101604052809291908181526020018280546122f890614d77565b80156123455780601f1061231a57610100808354040283529160200191612345565b820191906000526020600020905b81548152906001019060200180831161232857829003601f168201915b505050505081525050905060008160000151511415612399576040517f08c379a000000000000000000000000000000000000000000000000000000000815260040161239090614a69565b60405180910390fd5b600060036000836020015181526020019081526020016000206040518060e0016040529081600082015481526020016001820180546123d790614d77565b80601f016020809104026020016040519081016040528092919081815260200182805461240390614d77565b80156124505780601f1061242557610100808354040283529160200191612450565b820191906000526020600020905b81548152906001019060200180831161243357829003601f168201915b5050505050815260200160028201805461246990614d77565b80601f016020809104026020016040519081016040528092919081815260200182805461249590614d77565b80156124e25780601f106124b7576101008083540402835291602001916124e2565b820191906000526020600020905b8154815290600101906020018083116124c557829003601f168201915b505050505081526020016003820154815260200160048201805461250590614d77565b80601f016020809104026020016040519081016040528092919081815260200182805461253190614d77565b801561257e5780601f106125535761010080835404028352916020019161257e565b820191906000526020600020905b81548152906001019060200180831161256157829003601f168201915b5050505050815260200160058201805461259790614d77565b80601f01602080910402602001604051908101604052809291908181526020018280546125c390614d77565b80156126105780601f106125e557610100808354040283529160200191612610565b820191906000526020600020905b8154815290600101906020018083116125f357829003601f168201915b505050505081526020016006820160009054906101000a900460ff166003811115612664577f4e487b7100000000000000000000000000000000000000000000000000000000600052602160045260246000fd5b600381111561269c577f4e487b7100000000000000000000000000000000000000000000000000000000600052602160045260246000fd5b81525050905060006040518061022001604052808460000151815260200184602001518152602001846040015115158152602001846060015115158152602001846080015181526020018460a001516004811115612723577f4e487b7100000000000000000000000000000000000000000000000000000000600052602160045260246000fd5b60ff1681526020018460c0015181526020018460e001518152602001846101000151815260200184610120015181526020018461014001518152602001836020015181526020018360400151815260200183606001518152602001836080015181526020018360a0015181526020018360c0015160038111156127cf577f4e487b7100000000000000000000000000000000000000000000000000000000600052602160045260246000fd5b60ff168152509050809350505050919050565b6000803373ffffffffffffffffffffffffffffffffffffffff1673ffffffffffffffffffffffffffffffffffffffff16815260200190815260200160002060040160009054906101000a900460ff16612870576040517f08c379a0000000000000000000000000000000000000000000000000000000008152600401612867906149c9565b60405180910390fd5b6040518060400160405280600b81526020017f4449535452494255544f52000000000000000000000000000000000000000000815250805190602001206000803373ffffffffffffffffffffffffffffffffffffffff1673ffffffffffffffffffffffffffffffffffffffff1681526020019081526020016000206003016040516128fb919061467f565b604051809103902014612943576040517f08c379a000000000000000000000000000000000000000000000000000000000815260040161293a906149a9565b60405180910390fd5b60006005846040516129559190614696565b9081526020016040518091039020600001805461297190614d77565b905014156129b4576040517f08c379a00000000000000000000000000000000000000000000000000000000081526004016129ab90614a69565b60405180910390fd5b816005846040516129c59190614696565b908152602001604051809103902060030190805190602001906129e992919061358b565b50806005846040516129fb9190614696565b90815260200160405180910390206005019080519060200190612a1f92919061358b565b506002600584604051612a329190614696565b908152602001604051809103902060040160006101000a81548160ff02191690836004811115612a8b577f4e487b7100000000000000000000000000000000000000000000000000000000600052602160045260246000fd5b02179055507fdc8cabdb0e711a565797ff3869725802ae343d5694a86de295b52d016e5cd8758382604051612ac1929190614757565b60405180910390a1505050565b600581805160208101820180518482526020830160208501208183528095505050505050600091509050806000018054612b0790614d77565b80601f0160208091040260200160405190810160405280929190818152602001828054612b3390614d77565b8015612b805780601f10612b5557610100808354040283529160200191612b80565b820191906000526020600020905b815481529060010190602001808311612b6357829003601f168201915b5050505050908060010154908060020160009054906101000a900460ff16908060020160019054906101000a900460ff1690806003018054612bc190614d77565b80601f0160208091040260200160405190810160405280929190818152602001828054612bed90614d77565b8015612c3a5780601f10612c0f57610100808354040283529160200191612c3a565b820191906000526020600020905b815481529060010190602001808311612c1d57829003601f168201915b5050505050908060040160009054906101000a900460ff1690806005018054612c6290614d77565b80601f0160208091040260200160405190810160405280929190818152602001828054612c8e90614d77565b8015612cdb5780601f10612cb057610100808354040283529160200191612cdb565b820191906000526020600020905b815481529060010190602001808311612cbe57829003601f168201915b505050505090806006018054612cf090614d77565b80601f0160208091040260200160405190810160405280929190818152602001828054612d1c90614d77565b8015612d695780601f10612d3e57610100808354040283529160200191612d69565b820191906000526020600020905b815481529060010190602001808311612d4c57829003601f168201915b505050505090806007018054612d7e90614d77565b80601f0160208091040260200160405190810160405280929190818152602001828054612daa90614d77565b8015612df75780601f10612dcc57610100808354040283529160200191612df7565b820191906000526020600020905b815481529060010190602001808311612dda57829003601f168201915b505050505090806008018054612e0c90614d77565b80601f0160208091040260200160405190810160405280929190818152602001828054612e3890614d77565b8015612e855780601f10612e5a57610100808354040283529160200191612e85565b820191906000526020600020905b815481529060010190602001808311612e6857829003601f168201915b505050505090806009018054612e9a90614d77565b80601f0160208091040260200160405190810160405280929190818152602001828054612ec690614d77565b8015612f135780601f10612ee857610100808354040283529160200191612f13565b820191906000526020600020905b815481529060010190602001808311612ef657829003601f168201915b505050505090508b565b600260008773ffffffffffffffffffffffffffffffffffffffff1673ffffffffffffffffffffffffffffffffffffffff16815260200190815260200160002060009054906101000a900460ff1661302a576001869080600181540180825580915050600190039060005260206000200160009091909190916101000a81548173ffffffffffffffffffffffffffffffffffffffff021916908373ffffffffffffffffffffffffffffffffffffffff1602179055506001600260008873ffffffffffffffffffffffffffffffffffffffff1673ffffffffffffffffffffffffffffffffffffffff16815260200190815260200160002060006101000a81548160ff0219169083151502179055505b6040518060a001604052808681526020018581526020018481526020018381526020018215158152506000808873ffffffffffffffffffffffffffffffffffffffff1673ffffffffffffffffffffffffffffffffffffffff16815260200190815260200160002060008201518160000190805190602001906130ad92919061358b565b5060208201518160010190805190602001906130ca92919061358b565b5060408201518160020190805190602001906130e792919061358b565b50606082015181600301908051906020019061310492919061358b565b5060808201518160040160006101000a81548160ff021916908315150217905550905050505050505050565b6000803373ffffffffffffffffffffffffffffffffffffffff1673ffffffffffffffffffffffffffffffffffffffff16815260200190815260200160002060040160009054906101000a900460ff166131be576040517f08c379a00000000000000000000000000000000000000000000000000000000081526004016131b5906149c9565b60405180910390fd5b6040518060400160405280600c81526020017f4d414e5546414354555245520000000000000000000000000000000000000000815250805190602001206000803373ffffffffffffffffffffffffffffffffffffffff1673ffffffffffffffffffffffffffffffffffffffff168152602001908152602001600020600301604051613249919061467f565b604051809103902014613291576040517f08c379a0000000000000000000000000000000000000000000000000000000008152600401613288906149e9565b60405180910390fd5b600160038111156132cb577f4e487b7100000000000000000000000000000000000000000000000000000000600052602160045260246000fd5b6003600089815260200190815260200160002060060160009054906101000a900460ff166003811115613327577f4e487b7100000000000000000000000000000000000000000000000000000000600052602160045260246000fd5b14613367576040517f08c379a000000000000000000000000000000000000000000000000000000000815260040161335e90614a49565b60405180910390fd5b60006005876040516133799190614696565b9081526020016040518091039020600001805461339590614d77565b9050146133d7576040517f08c379a00000000000000000000000000000000000000000000000000000000081526004016133ce90614969565b60405180910390fd5b60006005876040516133e99190614696565b908152602001604051809103902090508681600001908051906020019061341192919061358b565b508781600101819055508581600701908051906020019061343392919061358b565b508481600801908051906020019061344c92919061358b565b508381600901908051906020019061346592919061358b565b508281600601908051906020019061347e92919061358b565b508181600301908051906020019061349792919061358b565b506000803373ffffffffffffffffffffffffffffffffffffffff1673ffffffffffffffffffffffffffffffffffffffff168152602001908152602001600020600001816005019080546134e990614d77565b6134f49291906136d0565b5060008160040160006101000a81548160ff02191690836004811115613543577f4e487b7100000000000000000000000000000000000000000000000000000000600052602160045260246000fd5b02179055507fe7e8fac9810c1662e3dc7e398a21d467261db4d92db343803b991a20555d0ab487896040516135799291906147fd565b60405180910390a15050505050505050565b82805461359790614d77565b90600052602060002090601f0160209004810192826135b95760008555613600565b82601f106135d257805160ff1916838001178555613600565b82800160010185558215613600579182015b828111156135ff5782518255916020019190600101906135e4565b5b50905061360d919061375d565b5090565b6040518060a00160405280606081526020016060815260200160608152602001606081526020016000151581525090565b604051806102200160405280606081526020016000815260200160001515815260200160001515815260200160608152602001600060ff16815260200160608152602001606081526020016060815260200160608152602001606081526020016060815260200160608152602001600081526020016060815260200160608152602001600060ff1681525090565b8280546136dc90614d77565b90600052602060002090601f0160209004810192826136fe576000855561374c565b82601f1061370f578054855561374c565b8280016001018555821561374c57600052602060002091601f016020900482015b8281111561374b578254825591600101919060010190613730565b5b509050613759919061375d565b5090565b5b8082111561377657600081600090555060010161375e565b5090565b600061378d61378884614bd5565b614ba4565b9050828152602081018484840111156137a557600080fd5b6137b0848285614d35565b509392505050565b6000813590506137c781614ee7565b92915050565b6000813590506137dc81614efe565b92915050565b6000813590506137f181614f15565b92915050565b600082601f83011261380857600080fd5b813561381884826020860161377a565b91505092915050565b60008135905061383081614f25565b92915050565b60006020828403121561384857600080fd5b6000613856848285016137b8565b91505092915050565b60008060008060008060c0878903121561387857600080fd5b600061388689828a016137b8565b965050602087013567ffffffffffffffff8111156138a357600080fd5b6138af89828a016137f7565b955050604087013567ffffffffffffffff8111156138cc57600080fd5b6138d889828a016137f7565b945050606087013567ffffffffffffffff8111156138f557600080fd5b61390189828a016137f7565b935050608087013567ffffffffffffffff81111561391e57600080fd5b61392a89828a016137f7565b92505060a061393b89828a016137cd565b9150509295509295509295565b60006020828403121561395a57600080fd5b600082013567ffffffffffffffff81111561397457600080fd5b613980848285016137f7565b91505092915050565b6000806040838503121561399c57600080fd5b600083013567ffffffffffffffff8111156139b657600080fd5b6139c2858286016137f7565b92505060206139d3858286016137e2565b9150509250929050565b6000806000606084860312156139f257600080fd5b600084013567ffffffffffffffff811115613a0c57600080fd5b613a18868287016137f7565b935050602084013567ffffffffffffffff811115613a3557600080fd5b613a41868287016137f7565b925050604084013567ffffffffffffffff811115613a5e57600080fd5b613a6a868287016137f7565b9150509250925092565b60008060008060008060c08789031215613a8d57600080fd5b600087013567ffffffffffffffff811115613aa757600080fd5b613ab389828a016137f7565b965050602087013567ffffffffffffffff811115613ad057600080fd5b613adc89828a016137f7565b955050604087013567ffffffffffffffff811115613af957600080fd5b613b0589828a016137f7565b945050606087013567ffffffffffffffff811115613b2257600080fd5b613b2e89828a016137f7565b935050608087013567ffffffffffffffff811115613b4b57600080fd5b613b5789828a016137f7565b92505060a087013567ffffffffffffffff811115613b7457600080fd5b613b8089828a016137f7565b9150509295509295509295565b600080600080600060a08688031215613ba557600080fd5b600086013567ffffffffffffffff811115613bbf57600080fd5b613bcb888289016137f7565b955050602086013567ffffffffffffffff811115613be857600080fd5b613bf4888289016137f7565b9450506040613c0588828901613821565b935050606086013567ffffffffffffffff811115613c2257600080fd5b613c2e888289016137f7565b925050608086013567ffffffffffffffff811115613c4b57600080fd5b613c57888289016137f7565b9150509295509295909350565b600060208284031215613c7657600080fd5b6000613c8484828501613821565b91505092915050565b60008060408385031215613ca057600080fd5b6000613cae85828601613821565b925050602083013567ffffffffffffffff811115613ccb57600080fd5b613cd7858286016137f7565b9150509250929050565b600080600080600080600060e0888a031215613cfc57600080fd5b6000613d0a8a828b01613821565b975050602088013567ffffffffffffffff811115613d2757600080fd5b613d338a828b016137f7565b965050604088013567ffffffffffffffff811115613d5057600080fd5b613d5c8a828b016137f7565b955050606088013567ffffffffffffffff811115613d7957600080fd5b613d858a828b016137f7565b945050608088013567ffffffffffffffff811115613da257600080fd5b613dae8a828b016137f7565b93505060a088013567ffffffffffffffff811115613dcb57600080fd5b613dd78a828b016137f7565b92505060c088013567ffffffffffffffff811115613df457600080fd5b613e008a828b016137f7565b91505092959891949750929550565b60008060008060008060c08789031215613e2857600080fd5b6000613e3689828a01613821565b965050602087013567ffffffffffffffff811115613e5357600080fd5b613e5f89828a016137f7565b955050604087013567ffffffffffffffff811115613e7c57600080fd5b613e8889828a016137f7565b9450506060613e9989828a01613821565b935050608087013567ffffffffffffffff811115613eb657600080fd5b613ec289828a016137f7565b92505060a087013567ffffffffffffffff811115613edf57600080fd5b613eeb89828a016137f7565b9150509295509295509295565b6000613f0483836145c7565b905092915050565b613f1581614c96565b82525050565b6000613f2682614c2a565b613f308185614c4d565b935083602082028501613f4285614c05565b8060005b85811015613f7e5784840389528151613f5f8582613ef8565b9450613f6a83614c40565b925060208a01995050600181019050613f46565b50829750879550505050505092915050565b613f9981614ca8565b82525050565b613fa881614ca8565b82525050565b60008154613fbb81614d77565b613fc58186614c5e565b94506001821660008114613fe05760018114613ff157614024565b60ff19831686528186019350614024565b613ffa85614c15565b60005b8381101561401c57815481890152600182019150602081019050613ffd565b838801955050505b50505092915050565b61403681614d11565b82525050565b61404581614d23565b82525050565b600061405682614c35565b6140608185614c69565b9350614070818560208601614d44565b61407981614eae565b840191505092915050565b600061408f82614c35565b6140998185614c7a565b93506140a9818560208601614d44565b6140b281614eae565b840191505092915050565b60006140c882614c35565b6140d28185614c8b565b93506140e2818560208601614d44565b80840191505092915050565b60006140fb601383614c7a565b91507f4261746368206b686f6e6720746f6e20746169000000000000000000000000006000830152602082019050919050565b600061413b602083614c7a565b91507f4368692063686f2070686570205452414e53504f52545f415554484f524954596000830152602082019050919050565b600061417b601583614c7a565b91507f4368692063686f20706865702052455441494c455200000000000000000000006000830152602082019050919050565b60006141bb601283614c7a565b91507f4d696c6b426f7820646120746f6e2074616900000000000000000000000000006000830152602082019050919050565b60006141fb602083614c7a565b91507f4368692063686f2070686570204e5554524954494f4e5f415554484f524954596000830152602082019050919050565b600061423b601883614c7a565b91507f4368692063686f2070686570204449535452494255544f5200000000000000006000830152602082019050919050565b600061427b601883614c7a565b91507f5061727469636970616e74206b686f6e672061637469766500000000000000006000830152602082019050919050565b60006142bb601983614c7a565b91507f4368692063686f2070686570204d414e554641435455524552000000000000006000830152602082019050919050565b60006142fb602283614c7a565b91507f4368692063686f207068657020464f4f445f5341464554595f415554484f524960008301527f54590000000000000000000000000000000000000000000000000000000000006020830152604082019050919050565b6000614361601183614c7a565b91507f4368692063686f2070686570204641524d0000000000000000000000000000006000830152602082019050919050565b60006143a1601983614c7a565b91507f426174636820636875612064756f6320706865206475796574000000000000006000830152602082019050919050565b60006143e1601583614c7a565b91507f4d696c6b426f78206b686f6e6720746f6e2074616900000000000000000000006000830152602082019050919050565b6000610220830160008301518482036000860152614432828261404b565b91505060208301516144476020860182614652565b50604083015161445a6040860182613f90565b50606083015161446d6060860182613f90565b5060808301518482036080860152614485828261404b565b91505060a083015161449a60a0860182614670565b5060c083015184820360c08601526144b2828261404b565b91505060e083015184820360e08601526144cc828261404b565b9150506101008301518482036101008601526144e8828261404b565b915050610120830151848203610120860152614504828261404b565b915050610140830151848203610140860152614520828261404b565b91505061016083015184820361016086015261453c828261404b565b915050610180830151848203610180860152614558828261404b565b9150506101a083015161456f6101a0860182614652565b506101c08301518482036101c0860152614589828261404b565b9150506101e08301518482036101e08601526145a5828261404b565b9150506102008301516145bc610200860182614670565b508091505092915050565b600060a08301600083015184820360008601526145e4828261404b565b915050602083015184820360208601526145fe828261404b565b91505060408301518482036040860152614618828261404b565b91505060608301518482036060860152614632828261404b565b91505060808301516146476080860182613f90565b508091505092915050565b61465b81614cfa565b82525050565b61466a81614cfa565b82525050565b61467981614d04565b82525050565b600061468b8284613fae565b915081905092915050565b60006146a282846140bd565b915081905092915050565b60006020820190506146c26000830184613f0c565b92915050565b600060208201905081810360008301526146e28184613f1b565b905092915050565b60006020820190506146ff6000830184613f9f565b92915050565b6000602082019050818103600083015261471f8184614084565b905092915050565b600060408201905081810360008301526147418185614084565b9050614750602083018461403c565b9392505050565b600060408201905081810360008301526147718185614084565b905081810360208301526147858184614084565b90509392505050565b600060a08201905081810360008301526147a88188614084565b905081810360208301526147bc8187614084565b905081810360408301526147d08186614084565b905081810360608301526147e48185614084565b90506147f36080830184613f9f565b9695505050505050565b600060408201905081810360008301526148178185614084565b90506148266020830184614661565b9392505050565b6000610160820190508181036000830152614848818e614084565b9050614857602083018d614661565b614864604083018c613f9f565b614871606083018b613f9f565b8181036080830152614883818a614084565b905061489260a083018961403c565b81810360c08301526148a48188614084565b905081810360e08301526148b88187614084565b90508181036101008301526148cd8186614084565b90508181036101208301526148e28185614084565b90508181036101408301526148f78184614084565b90509c9b505050505050505050505050565b60006020820190508181036000830152614922816140ee565b9050919050565b600060208201905081810360008301526149428161412e565b9050919050565b600060208201905081810360008301526149628161416e565b9050919050565b60006020820190508181036000830152614982816141ae565b9050919050565b600060208201905081810360008301526149a2816141ee565b9050919050565b600060208201905081810360008301526149c28161422e565b9050919050565b600060208201905081810360008301526149e28161426e565b9050919050565b60006020820190508181036000830152614a02816142ae565b9050919050565b60006020820190508181036000830152614a22816142ee565b9050919050565b60006020820190508181036000830152614a4281614354565b9050919050565b60006020820190508181036000830152614a6281614394565b9050919050565b60006020820190508181036000830152614a82816143d4565b9050919050565b60006020820190508181036000830152614aa38184614414565b905092915050565b6000602082019050614ac06000830184614661565b92915050565b6000608082019050614adb6000830187614661565b8181036020830152614aed8186614084565b90508181036040830152614b018185614084565b9050614b106060830184614661565b95945050505050565b600060e082019050614b2e600083018a614661565b8181036020830152614b408189614084565b90508181036040830152614b548188614084565b9050614b636060830187614661565b8181036080830152614b758186614084565b905081810360a0830152614b898185614084565b9050614b9860c083018461402d565b98975050505050505050565b6000604051905081810181811067ffffffffffffffff82111715614bcb57614bca614e7f565b5b8060405250919050565b600067ffffffffffffffff821115614bf057614bef614e7f565b5b601f19601f8301169050602081019050919050565b6000819050602082019050919050565b60008190508160005260206000209050919050565b600081519050919050565b600081519050919050565b6000602082019050919050565b600082825260208201905092915050565b600081905092915050565b600082825260208201905092915050565b600082825260208201905092915050565b600081905092915050565b6000614ca182614cda565b9050919050565b60008115159050919050565b6000819050614cc282614ebf565b919050565b6000819050614cd582614ed3565b919050565b600073ffffffffffffffffffffffffffffffffffffffff82169050919050565b6000819050919050565b600060ff82169050919050565b6000614d1c82614cb4565b9050919050565b6000614d2e82614cc7565b9050919050565b82818337600083830152505050565b60005b83811015614d62578082015181840152602081019050614d47565b83811115614d71576000848401525b50505050565b60006002820490506001821680614d8f57607f821691505b60208210811415614da357614da2614e50565b5b50919050565b6000614db482614cfa565b91507fffffffffffffffffffffffffffffffffffffffffffffffffffffffffffffffff821415614de757614de6614df2565b5b600182019050919050565b7f4e487b7100000000000000000000000000000000000000000000000000000000600052601160045260246000fd5b7f4e487b7100000000000000000000000000000000000000000000000000000000600052602160045260246000fd5b7f4e487b7100000000000000000000000000000000000000000000000000000000600052602260045260246000fd5b7f4e487b7100000000000000000000000000000000000000000000000000000000600052604160045260246000fd5b6000601f19601f8301169050919050565b60048110614ed057614ecf614e21565b5b50565b60058110614ee457614ee3614e21565b5b50565b614ef081614c96565b8114614efb57600080fd5b50565b614f0781614ca8565b8114614f1257600080fd5b50565b60058110614f2257600080fd5b50565b614f2e81614cfa565b8114614f3957600080fd5b5056fea26469706673582212207385cd2975fa0b8b18abca543c8d86b34681e19d38ce109b596dd99afb21ce7e64736f6c63430008000033",
  "immutableReferences": {},
  "source": "// SPDX-License-Identifier: FIT\npragma solidity ^0.8.0;\n\ncontract MilkSupplyChain {\n    // Enum nh ngha trng thi ca l sa\n    // - Created: L sa va c to bi FARM.\n    // - ApprovedByNutrition: L sa  c ph duyt bi NUTRITION_AUTHORITY.\n    // - ManufacturerProcessing: L sa ang c ch bin bi MANUFACTURER.\n    // - Processed: L sa  hon thnh ch bin.\n    enum BatchStatus { Created, ApprovedByNutrition, ManufacturerProcessing, Processed }\n    \n    // Enum nh ngha trng thi ca hp sa\n    // - Created: Hp sa va c to bi MANUFACTURER.\n    // - Approved: Hp sa  c ph duyt bi FOOD_SAFETY_AUTHORITY.\n    // - InTransit: Hp sa ang c vn chuyn bi DISTRIBUTOR.\n    // - ArrivedAtRetailer: Hp sa  n ca RETAILER.\n    // - Sold: Hp sa  c bn cho ngi tiu dng.\n    enum MilkBoxStatus { Created, Approved, InTransit, ArrivedAtRetailer, Sold }\n    \n    // Struct Participant lu thng tin ca cc bn tham gia chui cung ng.\n    // Lu : a ch ca participant c dng lm key trong mapping.\n    struct Participant {\n        string name;       // Tn ca participant.\n        string location;   // V tr (a ch) ca participant.\n        string phone;      // S in thoi lin h.\n        string role;       // Vai tr ca participant (v d: \"FARM\", \"NUTRITION_AUTHORITY\", \"MANUFACTURER\", v.v.).\n        bool isActive;     // Trng thi hot ng.\n    }\n    \n    // Mapping lu tr Participant, key l a ch ca participant.\n    mapping(address => Participant) public participants;\n    // Duyt ton b mapping participants\n    address[] public participantAddresses;\n    mapping(address => bool) public participantRegistered;\n\n    // Hm ng k hoc cp nht thng tin ca mt Participant\n    function setParticipant(\n        address _participant,\n        string memory _name,\n        string memory _location,\n        string memory _phone,\n        string memory _role,\n        bool _isActive\n    ) public {\n        if (!participantRegistered[_participant]) {\n            participantAddresses.push(_participant);\n            participantRegistered[_participant] = true;\n        }\n        participants[_participant] = Participant(_name, _location, _phone, _role, _isActive);\n    }\n    \n    // Hm ly ton b d liu Participant, tr v mng cc struct Participant.\n    function getParticipants() public view returns (Participant[] memory) {\n        uint256 len = participantAddresses.length;\n        Participant[] memory result = new Participant[](len);\n        for (uint256 i = 0; i < len; i++) {\n            result[i] = participants[participantAddresses[i]];\n        }\n        return result;\n    }\n    \n    // Struct MilkBatch lu tr thng tin ca l sa.\n    // - batchId: M nh danh ca l sa (t ng tng).\n    // - batchName: Tn ca l sa.\n    // - milkingDate: Ngy vt sa.\n    // - volume: Th tch sa.\n    // - farmOwner: a ch ca trang tri s hu (FARM).\n    // - approvedBy: a ch ca c quan duyt (NUTRITION_AUTHORITY).\n    // - status: Trng thi ca l sa theo enum BatchStatus.\n    struct MilkBatch {\n        uint256 batchId;\n        string batchName;\n        string milkingDate;\n        uint256 volume;\n        string farmOwner;\n        string approvedBy;\n        BatchStatus status;\n    }\n    mapping(uint256 => MilkBatch) public milkBatches;\n    \n    // Bin t ng tng batchId, bt u t 1.\n    uint256 public nextBatchId = 1;\n    \n    // Struct MilkBox lu tr thng tin ca hp sa.\n    // - serialNumber: S serial nh danh hp sa.\n    // - batchId: Lin kt n l sa (MilkBatch) m hp sa thuc v.\n    // - processingApproved: Trng thi ph duyt ch bin (FOOD_SAFETY_AUTHORITY).\n    // - transportApproved: Trng thi ph duyt vn chuyn (TRANSPORT_AUTHORITY).\n    // - distributorAddress: a ch ca nh phn phi (DISTRIBUTOR) nhn hp sa.\n    // - status: Trng thi ca hp sa theo enum MilkBoxStatus.\n    // - owner: Ch s hu hin ti ca hp sa (c th thay i theo qu trnh chuyn giao).\n    // - manufacturer: a ch ca nh my sn xut (MANUFACTURER) to ra hp sa.\n    // - boxName: Tn ca hp sa.\n    // - manufacturingDate: Ngy sn xut ca hp sa.\n    // - expirationDate: Hn s dng ca hp sa.\n    struct MilkBox {\n        string serialNumber;\n        uint256 batchId;\n        bool processingApproved;\n        bool transportApproved;\n        string distributorAddress;\n        MilkBoxStatus status;\n        string owner;\n        string manufacturer;\n        string boxName;\n        string manufacturingDate;\n        string expirationDate;\n    }\n    mapping(string => MilkBox) public milkBoxes;\n    \n    // Cc s kin theo di cc hnh ng trn chui cung ng.\n    event MilkBatchCreated(uint256 batchId, string batchName, string milkingDate, uint256 volume);\n    event MilkBatchApproved(uint256 batchId);\n    event MilkBoxCreated(string serialNumber, uint256 batchId);\n    event ProcessingBoxApproved(string serialNumber);\n    event DistributorUpdated(string serialNumber, string distributor);\n    event TransportBoxApproved(string serialNumber);\n    event BoxStatusUpdated(string serialNumber, MilkBoxStatus status);\n    \n    // 1. FARM to MilkBatch (batchId t ng tng).\n    function createMilkBatch(\n        string memory _batchName,\n        string memory _milkingDate,\n        uint256 _volume,\n        string memory _farmOwner,\n        string memory _approvedBy\n    ) public {\n        // // Ch cho php participant c role \"FARM\" thc hin.\n        // require(participants[msg.sender].isActive, \"Participant khong active\");\n        // require(\n        //     keccak256(bytes(participants[msg.sender].role)) == keccak256(bytes(\"FARM\")),\n        //     \"Chi cho phep FARM\"\n        // );\n        \n        uint256 currentBatchId = nextBatchId;\n        nextBatchId++;\n        \n        milkBatches[currentBatchId] = MilkBatch({\n            batchId: currentBatchId,\n            batchName: _batchName,\n            milkingDate: _milkingDate,\n            volume: _volume,\n            farmOwner: _farmOwner,\n            approvedBy: _approvedBy,\n            status: BatchStatus.Created\n        });\n        emit MilkBatchCreated(currentBatchId, _batchName, _milkingDate, _volume);\n    }\n\n    // Hm cp nht thng tin ca mt l sa\n    function updateMilkBatch(\n        uint256 _batchId,\n        string memory _batchName,\n        string memory _milkingDate,\n        uint256 _volume,\n        string memory _farmOwner,\n        string memory _approvedBy\n    ) public {\n        require(participants[msg.sender].isActive, \"Participant khong active\");\n        require(\n            keccak256(bytes(participants[msg.sender].role)) == keccak256(bytes(\"FARM\")),\n            \"Chi cho phep FARM\"\n        );\n        require(milkBatches[_batchId].batchId != 0, \"Batch khong ton tai\");\n        \n        milkBatches[_batchId] = MilkBatch({\n            batchId: _batchId,\n            batchName: _batchName,\n            milkingDate: _milkingDate,\n            volume: _volume,\n            farmOwner: _farmOwner,\n            approvedBy: _approvedBy,\n            status: milkBatches[_batchId].status\n        });\n    }\n    \n    // 2. NUTRITION_AUTHORITY ph duyt MilkBatch.\n    function approveMilking(uint256 _batchId, string memory _approvedBy) public {\n        require(participants[msg.sender].isActive, \"Participant khong active\");\n        require(\n            keccak256(bytes(participants[msg.sender].role)) == keccak256(bytes(\"NUTRITION_AUTHORITY\")),\n            \"Chi cho phep NUTRITION_AUTHORITY\"\n        );\n        require(milkBatches[_batchId].batchId != 0, \"Batch khong ton tai\");\n        \n        MilkBatch storage batch = milkBatches[_batchId];\n        batch.approvedBy = _approvedBy;\n        batch.status = BatchStatus.ApprovedByNutrition;\n        emit MilkBatchApproved(_batchId);\n    }\n    \n    // 3. MANUFACTURER to MilkBox t MilkBatch  c ph duyt.\n    // Cho php truyn vo _manufacturer  xc nh a ch ca nh my sn xut.\n    function createMilkBox(\n        uint256 _batchId,\n        string memory _serialNumber,\n        string memory _boxName,\n        string memory _manufacturingDate,\n        string memory _expirationDate,\n        string memory _manufacturer,\n        string memory _distributorAddress\n    ) public {\n        require(participants[msg.sender].isActive, \"Participant khong active\");\n        require(\n            keccak256(bytes(participants[msg.sender].role)) == keccak256(bytes(\"MANUFACTURER\")),\n            \"Chi cho phep MANUFACTURER\"\n        );\n        require(milkBatches[_batchId].status == BatchStatus.ApprovedByNutrition, \"Batch chua duoc phe duyet\");\n        require(bytes(milkBoxes[_serialNumber].serialNumber).length == 0, \"MilkBox da ton tai\");\n        \n        MilkBox storage box = milkBoxes[_serialNumber];\n        box.serialNumber = _serialNumber;\n        box.batchId = _batchId;\n        box.boxName = _boxName;\n        box.manufacturingDate = _manufacturingDate;\n        box.expirationDate = _expirationDate;\n        box.manufacturer = _manufacturer;\n        box.distributorAddress = _distributorAddress;\n        box.owner = participants[msg.sender].name;\n        box.status = MilkBoxStatus.Created;\n        \n        emit MilkBoxCreated(_serialNumber, _batchId);\n    }\n    \n    // Cp nht thng tin hp sa\n    function updateMilkBox(\n        string memory _serialNumber,\n        string memory _boxName,\n        string memory _manufacturingDate,\n        string memory _expirationDate,\n        string memory _manufacturer,\n        string memory _distributorAddress\n    ) public {\n        require(participants[msg.sender].isActive, \"Participant khong active\");\n        require(\n            keccak256(bytes(participants[msg.sender].role)) == keccak256(bytes(\"MANUFACTURER\")),\n            \"Chi cho phep MANUFACTURER\"\n        );\n        require(bytes(milkBoxes[_serialNumber].serialNumber).length > 0, \"MilkBox khong ton tai\");\n        \n        MilkBox storage box = milkBoxes[_serialNumber];\n        box.boxName = _boxName;\n        box.manufacturingDate = _manufacturingDate;\n        box.expirationDate = _expirationDate;\n        box.manufacturer = _manufacturer;\n        box.distributorAddress = _distributorAddress;\n    }\n    \n    // 4. FOOD_SAFETY_AUTHORITY ph duyt MilkBox => processingApproved = true.\n    function approveProcessingBox(string memory _serialNumber) public {\n        require(participants[msg.sender].isActive, \"Participant khong active\");\n        require(\n            keccak256(bytes(participants[msg.sender].role)) == keccak256(bytes(\"FOOD_SAFETY_AUTHORITY\")),\n            \"Chi cho phep FOOD_SAFETY_AUTHORITY\"\n        );\n        require(bytes(milkBoxes[_serialNumber].serialNumber).length != 0, \"MilkBox khong ton tai\");\n        \n        milkBoxes[_serialNumber].processingApproved = true;\n        milkBoxes[_serialNumber].status = MilkBoxStatus.Approved;\n        emit ProcessingBoxApproved(_serialNumber);\n    }\n    \n    // 5. DISTRIBUTOR cp nht MilkBox khi nhn hp sa.\n    function updateDistributor(string memory _serialNumber, string memory _distributorAddress, string memory _owner) public {\n        require(participants[msg.sender].isActive, \"Participant khong active\");\n        require(\n            keccak256(bytes(participants[msg.sender].role)) == keccak256(bytes(\"DISTRIBUTOR\")),\n            \"Chi cho phep DISTRIBUTOR\"\n        );\n        require(bytes(milkBoxes[_serialNumber].serialNumber).length != 0, \"MilkBox khong ton tai\");\n        \n        milkBoxes[_serialNumber].distributorAddress = _distributorAddress;\n        milkBoxes[_serialNumber].owner = _owner;\n        milkBoxes[_serialNumber].status = MilkBoxStatus.InTransit;\n        emit DistributorUpdated(_serialNumber, _owner);\n    }\n    \n    // 6. TRANSPORT_AUTHORITY ph duyt vn chuyn MilkBox => transportApproved = true.\n    function approveTransportBox(string memory _serialNumber) public {\n        require(participants[msg.sender].isActive, \"Participant khong active\");\n        require(\n            keccak256(bytes(participants[msg.sender].role)) == keccak256(bytes(\"TRANSPORT_AUTHORITY\")),\n            \"Chi cho phep TRANSPORT_AUTHORITY\"\n        );\n        require(bytes(milkBoxes[_serialNumber].serialNumber).length != 0, \"MilkBox khong ton tai\");\n        \n        milkBoxes[_serialNumber].transportApproved = true;\n        emit TransportBoxApproved(_serialNumber);\n    }\n    \n    // 7. RETAILER cp nht trng thi MilkBox (chuyn sang ArrivedAtRetailer hoc Sold).\n    function updateBoxStatusAtRetail(string memory _serialNumber, MilkBoxStatus _newStatus) public {\n        require(participants[msg.sender].isActive, \"Participant khong active\");\n        require(\n            keccak256(bytes(participants[msg.sender].role)) == keccak256(bytes(\"RETAILER\")),\n            \"Chi cho phep RETAILER\"\n        );\n        require(bytes(milkBoxes[_serialNumber].serialNumber).length != 0, \"MilkBox khong ton tai\");\n        \n        milkBoxes[_serialNumber].status = _newStatus;\n        emit BoxStatusUpdated(_serialNumber, _newStatus);\n    }\n    \n    // 8. Ngi tiu dng: Ly thng tin chi tit ca MilkBox v MilkBatch.\n    // hm ny tr v mt struct MilkBoxDetail gom gn tt c thng tin cn thit.\n    function getMilkBoxDetails(string memory _serialNumber) public view returns (MilkBoxDetail memory) {\n        MilkBox memory box = milkBoxes[_serialNumber];\n        require(bytes(box.serialNumber).length != 0, \"MilkBox khong ton tai\");\n        MilkBatch memory batch = milkBatches[box.batchId];\n        MilkBoxDetail memory detail = MilkBoxDetail({\n            serialNumber: box.serialNumber,\n            batchId: box.batchId,\n            processingApproved: box.processingApproved,\n            transportApproved: box.transportApproved,\n            distributorAddress: box.distributorAddress,\n            boxStatus: uint8(box.status),\n            owner: box.owner,\n            manufacturer: box.manufacturer,\n            boxName: box.boxName,\n            manufacturingDate: box.manufacturingDate,\n            expirationDate: box.expirationDate,\n            batchName: batch.batchName,\n            milkingDate: batch.milkingDate,\n            volume: batch.volume,\n            farmOwner: batch.farmOwner,\n            approvedBy: batch.approvedBy,\n            batchStatus: uint8(batch.status)\n        });\n        return detail;\n    }\n    \n    // Struct MilkBoxDetail: Gom gn tt c thng tin ca MilkBox v MilkBatch cn thit cho ngi tiu dng.\n    struct MilkBoxDetail {\n        string serialNumber;\n        uint256 batchId;\n        bool processingApproved;\n        bool transportApproved;\n        string distributorAddress;\n        uint8 boxStatus;\n        string owner;\n        string manufacturer;\n        string boxName;\n        string manufacturingDate;\n        string expirationDate;\n        string batchName;\n        string milkingDate;\n        uint256 volume;\n        string farmOwner;\n        string approvedBy;\n        uint8 batchStatus;\n    }\n\n}\n",
  "sourcePath": "D:\\Milk-master\\smartcontract\\contracts\\MilkSupplyChain.sol",
  "compiler": {
    "name": "solc",
    "version": "0.8.0+commit.c7dfd78e.Emscripten.clang"
  },
  "schemaVersion": "3.4.16",
  "updatedAt": "2025-03-24T14:09:07.124Z",
  "networkType": "ethereum",
  "devdoc": {
    "kind": "dev",
    "methods": {},
    "version": 1
  },
  "userdoc": {
    "kind": "user",
    "methods": {},
    "version": 1
  }
}